:020000002028B6
:10000800F000030EF1000B180E20710E8300F00EA5
:10001800700E090003138312061C850A4B20861FE5
:0800280085034E200B100800B7
:10004000272037203E20472003138312262803173A
:100050008316880189010313831685010614861708
:1000600081131514951703138312850108000313D8
:1000700083160F178F160F120F1408000313831621
:10008000161496170313831206080B1008008B171B
:100090008B150B100800051A85010800851B5120DF
:0C00A000080085130513851205120800E6
:04400E00C430FF3F7C
:00000001FF
