:02000000402896
:10000800F000030EF1000C180E20710E8300F00EA4
:10001800700E09003C308F00B0308E000C10850A3D
:0A00280008008C10860A080008008A
:100080004A2057205E20692077200313831222081C
:1000900085004728031783168801890103138316F7
:1000A000850186010313831285018601080003136D
:1000B00083160F178F160F120F14080003138316E1
:1000C0000C148C14031383120C108C100B178B1749
:1000D0000800031383121013901210169011901041
:1000E00010143C308F00B0308E000C100800031349
:1000F00083121217921212129215121592101214E4
:0E010000031383166430920091018C010800F5
:04400E00C420FF3F8C
:00000001FF
