:02000000402896
:10000800F000030EF1000C180E20710E8300F00EA4
:10001800700E09003C308F00B0308E000C10A00A22
:100028002008053C031D1B28A001850A08000800BC
:10008000472056205D20662003138312462803175D
:100090008316880189010313831685018601870170
:1000A0000313831285018601870108000313831659
:1000B0000F178F160F120F140800031383160C145A
:1000C000031383120C100B178B17080003138312F2
:1000D0001013901210169011901010143C308F00D5
:0800E000B0308E000C10080086
:04400E00C420FF3F8C
:00000001FF
