:02000000402896
:10000800F000030EF1000C180E20710E8300F00EA4
:10001800700E09003C308F00B0308E000C10A00A22
:100028002008053C031D1B28A001A10A08000800A0
:10008000492053205A20632003138312210885003E
:10009000462803178316880103138316850103136B
:1000A000831285010800031383160F178F160F1292
:1000B0000F140800031383160C14031383120C107F
:1000C0000B178B17080003138312101390121016CE
:1000D0009011901010143C308F00B0308E000C1036
:0200E000080016
:04400E00C420FF3F8C
:00000001FF
