:02000000402896
:10000800F000030EF1000B1810200B191A20710EC6
:100018008300F00E700E090003138312061C850A74
:100028007820861F85037B200B100800031383129A
:10003800633081000B11A00A2008643C031D2828A6
:0A004800A001870A832008000800C9
:1000800048205A2061206A207020031383124728D9
:1000900003178316880189010313831685018701DD
:1000A00006148617811315149517031383128501FF
:1000B00087010800031383160F178F160F120F14F2
:1000C00008000313831616149617031383120608E9
:1000D0000B1008008B178B150B108B160B110800DB
:1000E0000313831681128111011581100114080078
:1000F000051A85010800851B7E200800851305135D
:0C010000851205120800071A870108008C
:04400E00C420FF3F8C
:00000001FF
