:02000000402896
:10000800F200030EF3000B190E20F30E8300F20E1C
:10001800720E090003138312B03081000B1188019E
:1000280021181A282408860008141D282508860087
:0800380088140130A106080044
:100080004920592060200313831272208E2095206E
:1000900045280317831688018901031383168501F8
:1000A00086010810881003138312850186018701D9
:1000B0000800031383160F178F160F160F1408006E
:1000C0000313831681128111011581140114031386
:1000D000831203138312B03081000B118B178B1620
:1000E0000B11080009188420891889202008850030
:1000F0000800FA30F000F00B7B280800C830F1004F
:100100007920F10B802808007E2009188528A00A94
:1001100008007E2089188A28A003080020080F39CB
:10012000A200200E0F39A300080022080021A4001D
:0801300023080021A5000800CE
:100200008A010A140F3982073F3406345B344F34B5
:1002100066346D347D3407347F34673477347C340E
:0802200039345E347934713485
:04400E00C420FF3F8C
:00000001FF
