:060000000A128A110C280F
:10000800FE00030EF1000A08F2000A128A115B28AA
:100018000A128A110F28F501F60183010A128A11C2
:1000280015280A128A11BE200A128A118312031394
:100038009F149F182028212848281F0CF400740CAE
:100048000F39063A031D29282A282F281F08C339E3
:1000580014389F0041281F0CF400740C0F39053A1E
:10006800031D372838283D281F08C3391C389F002E
:1000780041281F08C33918389F002130F400F40BB9
:100088004328831203139F1476087502031C4D2816
:100098004E28502808141D2876087502031855287C
:1000A80056281D2808101D280A128A110C288312A8
:1000B80003130C1F6028612888281F0CF000700C9F
:1000C8000F39063A031D69286A286D281E089B0007
:1000D80086281F0CF000700C0F39053A031D75288F
:1000E800762879281E08950086281F0CF000700CC9
:1000F8000F39073A031D8128822886281E08F00038
:100108007008F5000C138F280B1177088100013057
:10011800F0007008F60772088A00710E8300FE0E60
:100128007E0E09008316031307158714F930920011
:100138003F308312031397051708F0390C389700DE
:100148000F309500CF3097051D08F0390C389D0009
:100158000F309B001D129D120C10033092041215D3
:100168008C1CB728B828B4288C10831603130711E1
:10017800871008000A128A11F2200A128A110A123C
:100188008A111E210A128A110A128A1113210A12CF
:100198008A110A128A1105210A128A110A128A1171
:1001A800DD200A128A110A128A1196200A128A116F
:1001B8000800831603139F131F129F128312031341
:1001C8001F083F3980389F001F141F08C33914388F
:1001D8009F002130F300F30BEF280800E03083166E
:1001E80003178800890107308316031389008801E3
:1001F8008312031388018901FA30F3007308F700AA
:100208000800831603138112011281110108F839BD
:1002180003388100770883120313810008008312D2
:1002280003130C13831603130C178B170B178B165A
:100238000B1108007030831603138F040F14080085
:04400E00D420FF3F7C
:00000001FF
