:02000000402896
:10000800F200030EF3000B190E20730E8300F20E9C
:10001800720E090003138312753081000B11142826
:10002800081D17281A28881C2028262888012A082D
:100038008600013088002B2888012B0886000230B2
:1000480088002B2888012C088600043088000800C6
:100080004B20602067206F20031383127320992078
:10009000AB208F204628031783168801890103139C
:1000A0008316850186018701081088100811031343
:1000B0008312850186018701081088100811080045
:1000C000031383160F178F160F120F140800031354
:1000D00083168112811101158110011008008B1700
:1000E0008B160B1508000918852089188A2020080E
:1000F00085000800FA30F000F00B7C280800C830BA
:10010000F1007A20F10B812808007A20091886284E
:10011000A00A08007A2089188B28A0030800270865
:100120000021AA0028080021AB0029080021AC000A
:1001300008000508A100A201A20A6430A102031868
:100140009C282203A30064302107A4002308A700F1
:100150002408A60008002608A100A201A20A0A306D
:10016000A1020318AE282203A4000A302107A5002B
:0A0170002408A8002508A9000800D3
:100200008A010A140F3982073F3406345B344F34B5
:1002100066346D347D3407347F34673477347C340E
:0802200039345E347934713485
:04400E00C420FF3F8C
:00000001FF
