:02000000402896
:10000800F000030EF1008C180E20710E8300F00E24
:10001800700E09008C10A00A20080A3C031D17283E
:08002800A001A20A0800080073
:10008000492054205B206B20031383122208860032
:100090004628031783168801890103138316061067
:1000A0000313831206100800031383160F178F160D
:1000B0000F120F1408000313831212179216121650
:1000C000921592141214121503138316C330920062
:1000D00091018C100800031383168C1403138312F0
:0800E0008B170B178C100800B0
:04400E00C420FF3F8C
:00000001FF
