:060000000A128A110E280D
:10000800FE00030EF2000408F3000A08F4000A12C6
:100018008A116E290A128A111128F8018312031312
:10002800B301B401B501B601B701B801B901BA010C
:10003800BB0183010A128A119428333083120313F7
:10004800A4000030A5002C08A1002B08A0006430F3
:10005800A2000030A3000A128A11ED220A128A11A6
:10006800831203132108A7002008A6000A128A1188
:100078002C220A128A11831203132508AC002408C3
:10008800AB006430A0000030A1002C08A3002B08AE
:10009800A2000A128A1105210A128A1164308312F9
:1000A8000313A0000030A1002C08A3002B08A20015
:1000B8000A128A11B1220A128A1183120313200824
:1000C800AD002D08B0000A30A0000030A1003008B3
:1000D800AD00AE012D08A2002E08A3000A128A1155
:1000E80005210A128A11831203132008AF002F0872
:1000F800BA000A30A0000030A1003008AD00AE01FF
:100108002D08A2002E08A3000A128A11D1210A1272
:100118008A11831203132008AF002F08B9000800C2
:100128000A128A1114230A128A11831203139F14C4
:100138009F189F28A028D728C5281F08C339143816
:100148009F000F3083120313B100B10BA928AC280C
:1001580083120313B501B50AD5281F08C339183807
:100168009F000F3083120313B100B10BB928BC28CC
:1001780083120313B501D5281F08C33914389F000B
:10018800A5283508B100B2013208003A0319CD2874
:10019800C0283108003A0319A128013A0319B128E7
:1001A800C0289F140C133408AC003308AB000A12A3
:1001B8008A1121200A128A1100300A128A11722229
:1001C8000A128A1183120313B1003108B8003A08E1
:1001D8000A128A1172220A128A1183120313B100B9
:1001E8003108B70039080A128A1172220A128A11D4
:1001F80083120313B1003108B6009C280A128A1131
:100208000E2883120313A501A11F0B290C291329FA
:10021800A009A109A00A0319A10AA501A50AA31FFB
:10022800162917292029A209A309A20A0319A30A32
:100238000130F5007508A506A601A70120082104CC
:100248000319272928295F29A401A40A362901307E
:100258000310A00DA10DFF3E031D2C290130F50050
:100268007508A407A11F39293A292B290130031041
:10027800A60DA70DFF3E031D3B2921082302031DE0
:10028800472920082202031C4A294B295229200801
:10029800A2022108031CA303A302261401300310A1
:1002A800A10CA00CFF3E031D53290130A402031D1D
:1002B8005E295F293A2925080319632964296929D0
:1002C800A609A709A60A0319A70A2708A10026084C
:1002D800A0000800831203130C1F732974299229A4
:1002E8001F0CF000700C0F39063A031D7C297D297C
:1002F80085291E08F000F1017008B3007108B400E8
:1003080090291F0CF000700C0F39053A031D8D2938
:100318008E2990291E0885000C13C8290B1D9529C4
:100328009629C8290B118801B529F801F80A380857
:1003380087008330810001308800C8290230F0002E
:100348007008F80037088700833081000230880081
:10035800C829F801360887008330810004308800F6
:10036800C8297808F000F1017108003A0319BD297D
:1003780099297008003A03199929013A0319A22901
:10038800033A0319AD29992974088A00730884006F
:10039800720E8300FE0E7E0E0900F701831203130E
:1003A800A31FD729D829DF29A209A309A20A03195B
:1003B800A30AF701F70AA11FE229E329E829A009FE
:1003C800A109A00A0319A10A200821040319ED298B
:1003D800EE291D2AF601F60AFC2901300310A00DAA
:1003E800A10DFF3E031DF2290130F5007508F6073F
:1003F800A11FFF29002AF12921082302031D062A2B
:1004080020082202031C092A0A2A102A2008A2020C
:100418002108031CA303A30201300310A10CA00CA4
:10042800FF3E031D112A0130F602031D1C2A1D2A56
:10043800002A77080319212A222A272AA209A309B0
:10044800A20A0319A30A2308A1002208A000080091
:1004580083120313A901AA01240825040319352AC4
:10046800362A6D2AA801A80A442A01300310A40DCF
:10047800A50DFF3E031D3A2A0130F7007708A807AB
:10048800A51F472A482A392A01300310A90DAA0DA9
:10049800FF3E031D492A25082702031D552A240863
:1004A8002602031C582A592A602A2408A60225086D
:1004B800031CA703A702291401300310A50CA40CE0
:1004C800FF3E031D612A0130A802031D6C2A6D2A14
:1004D800482A2A08A5002908A4000800F700882A45
:1004E8003F30B02A0630B02A5B30B02A4F30B02AED
:1004F8006630B02A6D30B02A7D30B02A0730B02A75
:100508007F30B02A6730B02A7708F500F601760800
:10051800003A0319902A742A7508003A0319742AB4
:10052800013A0319762A033A0319782A013A03197A
:100538007A2A073A03197C2A013A03197E2A033AD0
:100548000319802A013A0319822A0F3A0319842AC7
:10055800013A0319862A742A080083120313200813
:1005680021040319B82AB92AE82AF601F60AC72A83
:1005780001300310A00DA10DFF3E031DBD2A01305F
:10058800F5007508F607A11FCA2ACB2ABC2A21083C
:100598002302031DD12A20082202031CD42AD52AAB
:1005A800DB2A2008A2022108031CA303A3020130AE
:1005B8000310A10CA00CFF3E031DDC2A0130F6023B
:1005C800031DE72AE82ACB2A2308A1002208A00055
:1005D8000800F501F60183120313201CF42AF52AFA
:1005E800FB2A2208F5070318F60A2308F607013044
:1005F8000310A20DA30DFF3E031DFC2A01300310BA
:10060800A10CA00CFF3E031D032B20082104031D91
:100618000E2B0F2BEF2A7608A1007508A000080002
:100628000A128A1142230A128A110A128A116E23A7
:100638000A128A110A128A1163230A128A110A12EB
:100648008A112E230A128A110A128A1155230A12B4
:100658008A110800831603139F01831203131F08CE
:100668003F3940389F001F141F08C33914389F00B2
:100678001030F500F50B3E2B0000080060308316A3
:1006880003178800890183160313850187018801F0
:1006980003308900831203138501870188018901CA
:1006A8000800831603138112011281110108F83919
:1006B80003388100833083120313810008008312FA
:1006C80003130C13831603130C178B170B178B16B6
:1006D8000B110800831603130F088F3960388F0039
:0406E8000F140800E3
:04400E00D420FF3F7C
:00000001FF
