:02000000402896
:10000800F000030EF1000B1810200B191A20710EC6
:100018008300F00E700E090003138312061C850A74
:100028007B20861F85037E200B1008000313831294
:10003800633081000B11A00A2008643C031D2828A6
:0A004800A001870AA20A08000800C0
:1000800049205D2064206D20732003138312932088
:1000900047280317831688018901031383168501F6
:1000A0008701880106148617811315149517031309
:1000B00083128501870188010800031383160F1737
:1000C0008F160F120F1408000313831616149617B9
:1000D0000313831206080B1008008B178B150B10E7
:1000E0008B160B1108000313831681128111011561
:1000F000811001140800051A85010800851B812064
:100100000800851305138512051208002208002136
:1001100088008B2008002208093C031D9228A30AAE
:10012000A2010800080086202308002187009920EA
:0E01300008002308063C031D9228A3010800C6
:100200008A010A1482073F3406345B344F34663463
:0A0210006D347D3407347F34673409
:04400E00C420FF3F8C
:00000001FF
