:02000000502886
:10000800F000030EF1000B1912200C1824208C1894
:100018003120710E8300F00E700E09000313831255
:10002800063081000B11880126181E282408870035
:10003800081421282508870088140130A60608001E
:100048000B308F0047308E000C10A00A2008083CA7
:10005800031D3928A001A20A39288C10A10A2108F9
:0C0068000A3C031D3928A101A30A08006E
:1000A0005D207120782080208E209E2003138312F3
:1000B000AB20AE20B820CA20582803178316880129
:1000C0008901031383168501061087010810881023
:1000D000031383128501061086018701081088101A
:1000E0000800031383160F178F160F120F14080042
:1000F000031383168112811101118114011008006C
:1001000003138312101390121016901190101014F4
:100110000B308F0047308E000C1008000313831241
:100120001217921612169215921412141215031326
:100130008316C330920091018C10080003138316BC
:100140000C148C14031383128B170B178B160B11C3
:100150000C108C100800230886000800B22022082A
:10016000850008002208643C031D0800A201080065
:100170002208A700A801A80A0A30A7020318BB2872
:100180002803A9000A302707AA002908AB002A087B
:10019000AC0008002B080021A4002C080021A500B9
:0201A000080055
:100200008A010A140F3982073F3406345B344F34B5
:1002100066346D347D3407347F34673477347C340E
:0802200039345E347934713485
:04400E00C420FF3F8C
:00000001FF
